:020000040800F2
:100000004007002025020008430400083F040008C0
:1000100041040008CD0200085B0900080000000050
:100020000000000000000000000000004105000882
:10003000C103000800000000BD04000839060008E4
:100040003F0200083F0200083F0200083F0200088C
:100050003F0200083F0200083F0200083F0200087C
:100060003F0200083F0200083F0200083F0200086C
:100070003F0200083F0200083F0200083F0200085C
:100080003F0200083F0200083F0200083F0200084C
:100090003F0200083F0200083F0200083F0200083C
:1000A0003F0200083F0200083F0200083F0200082C
:1000B0003F0200088D0600083F0200083F020008CA
:1000C0003F0200083F0200083F0200083F0200080C
:1000D0003F020008B10800083F0200083F02000884
:1000E0003F0200083F0200083F0200083F020008EC
:1000F0003F0200083F0200083F0200083F020008DC
:100100003F0200083F0200083F0200083F020008CB
:100110003F0200083F0200083F0200083F020008BB
:100120003F0200083F0200083F0200083F020008AB
:100130003F0200083F0200083F0200083F0200089B
:100140003F0200083F0200083F0200083F0200088B
:100150003F0200083F0200083F0200083F0200087B
:100160003F0200083F0200083F0200083F0200086B
:100170003F0200083F0200083F0200083F0200085B
:100180003F0200083F02000800F002F800F03AF8D1
:100190000AA090E8000C82448344AAF10107DA45E2
:1001A00001D100F02FF8AFF2090EBAE80F0013F0FA
:1001B000010F18BFFB1A43F0010318477C0A000027
:1001C0009C0A0000103A24BF78C878C1FAD85207B8
:1001D00024BF30C830C144BF04680C6070470000C1
:1001E0000023002400250026103A28BF78C1FBD840
:1001F000520728BF30C148BF0B6070471FB51FBDF5
:1002000010B510BD00F033F81146FFF7F7FF00F00E
:1002100009FC00F051F803B4FFF7F2FF03BC00F053
:100220009DFB00000948804709480047FEE7FEE7BC
:10023000FEE7FEE7FEE7FEE7FEE7FEE7FEE7FEE796
:1002400004480549054A064B704700003D06000872
:1002500089010008400100204007002040030020E1
:1002600040030020704770477047704770477546DD
:1002700000F028F8AE4605006946534620F0070016
:10028000854618B020B5FFF7DBFFBDE820404FF0F2
:1002900000064FF000074FF000084FF0000B21F070
:1002A0000701AC46ACE8C009ACE8C009ACE8C0093D
:1002B000ACE8C0098D4670470446AFF30080204685
:1002C000FFF7A9FF00487047E0000020FEE70000AC
:1002D0002DE9FF410121084600F0F2F800242F200B
:1002E0008DF8044003250C4F00908DF80550012631
:1002F0008DF807606946384600F063F810208DF8E5
:100300000C4002908DF80D508DF80F6002A9384610
:1003100000F057F8BDE8FF81000002400921B0FB62
:10032000F1F00249401D08717047000000000020F4
:100330000921B0FBF1F00249401D887170470000AF
:10034000000000200921B0FBF1F00249401D0872B5
:1003500070470000000000200921B0FBF1F00249C5
:10036000401D887270470000000000200921B0FB8A
:10037000F1F00249401D4873704700000000002062
:100380007CB50121022000F09BF801208DF80400CB
:1003900000228DF8062003218DF80510074D4FF43B
:1003A0007A748DF8070000946946284600F009F831
:1003B0002146284600F041F87CBD000000040240C0
:1003C0007047F0B5002201274FF0030C0B6807FAC5
:1003D00002F52B40AB422CD1066853000CFA03F413
:1003E000A64306600E79D0F800E09E4046EA0E066D
:1003F00006600E79012E01D0022E12D18668A64326
:1004000086604E79D0F808E09E4046EA0E06866087
:100410004668AE43466045688E799640B6B235432D
:100420004560C568A543C560CC799C40C3681C4342
:10043000C460521C102AC9D3F0BD41837047FEE747
:10044000FEE7704730B50F23C27801780125FAB175
:10045000144A126801F1E02102F4E062C2F5E062A0
:10046000C2F30722C2F10404D3404278A240847848
:100470001C401443220181F80024007800F01F0181
:100480008D404009800000F1E020C0F8005130BDEF
:1004900001F01F0085404809800000F1E020C0F80D
:1004A000805130BD0CED00E002490843024908606C
:1004B000704700000000FA050CED00E070470000F6
:1004C000044A0029116801D0014300E08143116012
:1004D0007047000030380240044A0029116801D0FA
:1004E000014300E081431160704700004038024042
:1004F00070B5084C01200025207065700A2000F0BE
:1005000045FA257060784B2801D3012070BD00208A
:1005100070BD00000000002070B5084C01200025CF
:10052000207065700A2000F031FA257060784B2841
:1005300001D3012070BD002070BD0000000000202C
:100540007047000003480021C0F888120121C0F85C
:100550008C1270470000404203480121C0F8881205
:10056000C0F88C1270470000000040420CB5002219
:10057000274900920192086840F4803008604FF4E7
:10058000A043086800F4003001900098401C0090DF
:10059000019810B900989842F3D10868800334D5C7
:1005A000012001901A484030026842F080520260F7
:1005B0001848026842F44042026015480830026858
:1005C0000260026842F400420260026842F4A052F3
:1005D0000260031F104A1A600A6842F080720A60C3
:1005E0000A689201FCD50D4940F205720A60016863
:1005F00021F003010160016841F00201016001681E
:10060000C1F381010229FAD10CBD01920CBD000099
:10061000003802400070004008544007003C02408F
:100620004FF0E0210428086903D020F0040008619D
:10063000704740F00400FAE7704700000F4810B51B
:10064000016841F0010101600C4A0021083211608B
:1006500002680B4B1A400260031D0A4A1A600268C6
:1006600022F48022026005480C300160FFF77EFF13
:1006700005494FF00060086010BD000000380240DE
:10068000FFFFF6FE1030002408ED00E070B53D4C91
:100690000121204600F0B9F8012871D13A4D01221C
:1006A0003A49EB78A878834209D3D1F8980220B16F
:1006B0000020C1F89802EA7003E00120F9E75B1C12
:1006C000EB70E879AB79984209D3D1F8940220B164
:1006D0000020C1F89402EA7103E00120F9E7401C10
:1006E000E871687A2B7A984209D3D1F89C0220B13C
:1006F0000020C1F89C026A7203E00120F9E7401C67
:100700006872E87AAB7A984209D3D1F8A00220B196
:100710000020C1F8A002EA7203E00120F9E7401CC2
:10072000E87268792B79984209D3D1F88C0220B10C
:100730000020C1F88C026A7103E00120F9E7401C37
:100740006871287B6B7B984209D3D1F8A40220B151
:100750000020C1F8A4022A7303E00120F9E7401C3D
:100760002873287830B10A48D0F8100210B16878A0
:10077000401C68702046BDE87040012100F038B888
:1007800070BD0000000400400000002000804042D6
:10079000000040427FB50D46044601210220FFF7CC
:1007A0009BFE0194ADF800500024104DADF80240BE
:1007B000ADF808406946284600F03CF80122114691
:1007C000284600F02EF80121284600F014F81D20DC
:1007D0008DF80C008DF80D4001208DF80E008DF87D
:1007E0000F0003A8FFF72EFE7FBD000000040040AD
:1007F000C943018270470029018802D041F00101FC
:1008000001E021F001010180704702460020138AB7
:1008100092890B4202EA010202D0002A00D0012094
:100820007047002A828901D00A4300E08A4382810E
:100830007047000030B50288164C174DA0420DD00D
:10084000A8420BD0B0F1804F08D0144B984205D08D
:10085000134B984202D0134B984203D122F07003FD
:100860004A881A43104B984206D0104B984203D046
:1008700022F440730A891A4302804A68C2620A88D5
:100880000285A04201D0A84201D1897A01860121C6
:10089000818230BD0000014000040140000400409E
:1008A00000080040000C0040001000400014004010
:1008B00070B5154C40F22551204600F02BF8002869
:1008C0000ED0204600F045F8104AC1B2108803044B
:1008D00006D444044FF0000306D50A2901D0138042
:1008E00070BD40F400400DE00D2909D0C0F30D04A7
:1008F000074D401C80B229551080C728EFD870BD25
:1009000040F48040108070BD0010014014000020B1
:100910001800002070B501F01F0501260024C1F366
:10092000421306FA05F2012B0FD0022B0FD0838A57
:100930004FEA11210088134206FA01F600EA060088
:1009400001D000B10124204670BD8389F0E7038AFD
:10095000EEE78088C0F308007047FEE770470000AC
:1009600010B504466FF00400FFF75AFE0649E00890
:1009700000EB40020870C2EBC0104FF6FF7202EAB3
:10098000C000488010BD00001000002070B54FF47A
:100990000776B0FBF6F1CCB2B0FBF6F106FB110521
:1009A00004E0304600F00CF8641EE4B2002CF8D1EC
:1009B000002D04D02846BDE8704000F001B870BD9D
:1009C0000B49498848434FF0E021486100238B617F
:1009D000086940F0010008610869C20701D0C0033E
:1009E000FAD5086920F0010008618B6170470000AA
:1009F000100000201CB501211020FFF761FD0C2024
:100A0000009000208DF8040003208DF805000120DF
:100A10008DF8070069460248FFF7D3FC1CBD0000B3
:100A2000001002404FF4A060FFF73EFDFFF7E2FF29
:100A3000FFF7A6FCFFF74CFCA820FFF791FF63210E
:100A40005320FFF7A7FE00F075F800F0A9F8FFF7B4
:100A500083FD284D284CD5F8080218B9D5F80C02AA
:100A6000012804D0D5F80802012802D005E00F20A3
:100A700004E0D5F80C02012819D00C20A070A07B4E
:100A8000012816D00228E6D1FFF732FD0028E2D077
:100A900000F092F8B420FFF769FC00F08DF800F048
:100AA0007FF8FFF759FDA07B401CA073D3E712200D
:100AB000E4E7FFF731FD0028CDD000F02DF800F07D
:100AC0007BF84FF41670FFF761FF012000F052F839
:100AD00000F014F84FF47A70FFF758FF00F01CF89C
:100AE00000F05EF8FFF72EFDA07B401CA07300F025
:100AF00005F8B0E70000424200000020054801214F
:100B0000C0F8A0120022C0F8A422C0F8A812C0F8B1
:100B1000BC2270470080414205480021C0F8A01265
:100B2000C0F8A412C0F8A812C0F8BC1270470000A8
:100B3000008041427CB501210820FFF7C1FC012063
:100B40008DF8040000228DF8062003218DF8051091
:100B5000074D4FF407448DF8070000946946284676
:100B6000FFF72FFC21462846FFF767FC7CBD0000FD
:100B7000000C024010B5012811D16320FFF7CEFB15
:100B80006320FFF7D5FB9020FFF7DCFB4FF41670D6
:100B9000FFF7FCFEBDE810406320FFF7DDBB10BD92
:100BA00000B56320FFF7D8FB02480C2181711921A1
:100BB000017200BD0000002010B56320FFF7CCFBE0
:100BC0004FF42F742046FFF7E1FE3F20FFF7B0FB04
:100BD0006320FFF7B7FB2046FFF7D8FE0920FFF799
:100BE0009DFB2046FFF7D2FE9920FFF7A1FB4FF4B3
:100BF0007A70FFF7CBFEB420FFF7A4FB2046FFF787
:100C0000C5FE9020FFF7A8FB2046FFF7BFFE3F2060
:100C1000FFF78EFB2046FFF7B9FE6320FFF792FB3C
:100C20002046FFF7B3FE5A20FFF778FB2046BDE8C9
:100C30001040FFF7ABBE0000580C00080000002079
:100C400018000000C4010008700C00081800002003
:100C500028070000E001000800000F010F010C014F
:100C6000190114010105010000000000000000004E
:040000050800018965
:00000001FF
